:200000004F07480720074C074F074F074B07210720074907740727077307200772076507F5
:2000200061076C0720076F07750774077007750774072007660772076F076D072007460778
:200040005007470741072D077607740731073007300721072007200720072007DA07C40771
:20006000C407C407BF072007DA07C407C407C407C407C407C407C407C407C407C407C40763
:20008000C407C407C407C407C407C407C407C407C407C407C407C407C407C407C407BF07B5
:2000A00041074207430744074507460747072007200730073107320720072007610762071E
:2000C00063076407650766076707200720072007210740072307240725072007200720072A
:2000E0007E072007600720072B07200720072007200720072007200720072007B3075F0715
:200100005F075F07B3072007B3074E076F0720077407650773077407200766076F07720727
:20012000200746074C07410753074807200779076507740720072007200720072007B307FC
:20014000480749074A074B074C074D074E0720072007330734073507200720076807690735
:200160006A076B076C076D076E072007200720075E0726072A072807290720072007200734
:200180003B0720073A0720073D07200720072007200720072007200720072007B3072D07FD
:2001A0002D072D07B3072007B307200720072007200720072007200720072007200720078F
:2001C000200720072007200720072007200720072007200720072007200720072007B3071C
:2001E0004F0750075107520753075407550720072007360737073807200720076F0770074D
:20020000710772077307740775072007200720077B077D075B075D073C073E072007200765
:2002200027072007220720072007200720072007200720072007200720072007B30758077A
:2002400058075807B3072007B3072007200720072007200720072007200720072007200798
:20026000200720072007200720072007200720072007200720072007200720072007B3077B
:20028000200756075707580759075A07200720072007200730072007200720072007760770
:2002A0007707780779077A0720072007200720072E072C072F073F075C077C07200720078C
:2002C0002D0720075F0720072007200720072007200720072007200720072007B3077C0773
:2002E0007C077C07B3072007B30720072007200720072007200720072007200720072007B0
:20030000200720072007200720072007200720072007200720072007200720072007B307DA
:2003200041076E076407200773076F076D076507200763076F076C076F077507720773073F
:200340003A0720072007200720072007200720072007200720072007200720072007200713
:2003600020072007200720072007200720072007200720072007200720072007C007C407C9
:20038000C407C407D9072007C007C407C407C407C407C407C407C407C407C407C407C40740
:2003A000C407C407C407C407C407C407C407C407C407C407C407C407C407C407C407D90778
:2003C000DA02C402C402C402C402BF022007D603C403C403C403B70320072007D604B70476
:2003E0002007D605B7052007D606B706D607B707D608B708D609B709D60AB70AD60BB70B64
:20040000D60CB70CD60DB70DD60EB70ED60FB70F2007200720072007200720072007200704
:2004200020072007200720072007200720072007200720072007200720072007200720074C
:2004400020072007200720072007200720072007200720072007200720072007200720072C
:20046000B3022007200720072007B3022007BA03200720072007BA0320072007D304BD047A
:200480002007D305BD052007D306BD06D307BD07D308BD08D309BD09D30ABD0AD30BBD0BAE
:2004A000D30CBD0CD30DBD0DD30EBD0ED30FBD0F20072007200720074607470720076307C8
:2004C0006F076C076F077507720773072007200720072007200720072007200720072007C8
:2004E00020072007200720072007200720072007200720072007200720072007200720078C
:20050000C002C402C402C402C402D9022007D303C403C403C403BD03200720072007200778
:2005200020072007200720072007200720072007200720072007200720072007200720074B
:2005400020072007200720072007200720072007200720072007200720072007200720072B
:2005600020072007200720072007200720072007200720072007200720072007200720070B
:200580002007200720072007200720072007200720072007200720072007200720072007EB
:2005A0002007200720072007200720072007200720072007200720072007200720072007CB
:2005C0002007200720072007200720072007200720072007200720072007200720072007AB
:2005E00020072007200720072007200720072007200720072007200720072007200720078B
:2006000020072007200720072007200720072007200720072007200720072007200720076A
:2006200020072007200720072007200720072007200720072007200720072007200720074A
:20064000D61FB71FD62FB72FD63FB73FD64FB74FD65FB75FD66FB76FD67FB77FD60FB70FC2
:200660002007200742074707200763076F076C076F07750772077307200720072007C914E4
:20068000BB142007C91EBB1E2007C92EBB2E2007C925BB252007C91BBB1B2007C95FBB5F5E
:2006A0002007C94FBB4F2007740F6F0F670F650F740F680F650F720F200F610F740F200F9F
:2006C0006C0F610F730F740F210F200720072007200720072007200720072007200720074D
:2006E000D31FBD1FD32FBD2FD33FBD3FD34FBD4FD35FBD5FD36FBD6FD37FBD7FD30FBD0F0A
:20070000200720072007200720072007200720072007200720072007200720072007C814B4
:20072000BC142007C81EBC1E2007C82EBC2E2007C825BC252007C81BBC1B2007C85FBC5FBC
:200740002007C84FBC4F200720072007200720072007200720072007200720072007200755
:20076000200720072007200720072007200720072007200720072007200720072007200709
:200780002007200720072007200720072007200720072007200720072007200720072007E9
:2007A0002007200720072007200720072007200720072007200720072007200720072007C9
:2007C0002007200720072007200720072007200720072007200720072007200720072007A9
:2007E000200720072007200720072007200720072007200720072007C50F2007CE0F200726
:20080000D80F2007D70F2007E80F2007E90F20079B0F20079C0F2007990F2007EF0F2007E9
:20082000200720072007200720072007200720072007200720072007200720072007200748
:20084000200720072007200720072007200720072007200720072007200720072007200728
:20086000200720072007200720072007200720072007200720072007200720072007200708
:200880002007200720072007200720072007200720072007200720072007200720072007E8
:2008A0002007200720072007200720072007200720072007200720072007200720072007C8
:2008C00054076F076F0720076D0775076307680720076F07660720076107200767076F073D
:2008E0006F07640720077407680769076E076707200769077307200757074F074E07440727
:2009000045075207460755074C07210720072D0720074D07610765072007570765077307F9
:20092000740720072007200720072007200720072007200720072007D60F2007B70F200796
:20094000D30F2007BD0F2007C40F2007BA0F2007C70F2007B60F2007D00F2007D20F2007BA
:20096000200720072007200720072007200720072007200720072007200720072007200707
:200980002007200720072007200720072007200720072007200720072007200720072007E7
:2009A0002007200720072007200720072007200720072007200720072007200720072007C7
:2009C000200720072007200720072007200720072007200720072007200F200F200F200F87
:2009E000200F200F200F200F200F200F200F200F200F200F200F200F200F200F200F20070F
:200A0000B00FB00FB00FB10FB10FB10FB20FB20FB20FDB0FDB0FDB0FDF0FDF0FDF0FDC0FA3
:200A2000DC0FDC0FDD0FDD0FDD0FDE0FDE0FDE0F200720072007200720072007200720071D
:200A4000200720072007200720072007200720072007200720072007200720072007200726
:200A6000200720072007200720072007200720072007200720072007D50F2007B80F2007A9
:200A8000D40F2007BE0F2007CD0F2007B30F2007C60F2007B50F2007CF0F2007D10F200779
:200AA0002007200720072007200720072007200720072007200720072007200720072007C6
:200AC0002007200720072007200720072007200720072007200720072007200720072007A6
:200AE000200720072007200720072007200720072007200720072007200720072007200786
:200B0000200720072007200720072007200720072007200720072007200720072007200765
:200B2000200720072007200720072007200720072007200720072007200720072007200745
:200B4000010F2007020F2007030F2007040F2007050F2007060F2007F00F20077F0F200761
:200B60000E0F20070F0F2007E30F2007F10F2007F40F2007F50F2007EA0F20079D0F200764
:200B8000E40F2007F80F2007FB0F2007FC0F2007830F2007840F2007850F2007A00F2007A6
:200BA000A60F2007860F20078E0F20078F0F2007910F2007920F2007C50F2007CE0F200786
:200BC000D80F2007D70F2007E80F2007E90F20079B0F20079C0F2007990F2007EF0F200726
:200BE000200720072007200720072007200720072007200720072007200720072007200785
:200C0000200720072007200720072007200720072007200720072007200720072007200764
:200C2000200720072007200720072007200720072007200720072007200720072007200744
:200C4000200720072007200720072007200720072007200720072007200720072007200724
:200C6000200720072007200720072007200720072007200720072007200720072007200704
:200C8000180F2007190F20071E0F20071F0F2007100F2007110F2007120F20071D0F2007E6
:200CA000140F2007150F2007E00F2007E10F2007E20F2007E50F2007E60F2007E70F200706
:200CC000EB0F2007EC0F2007ED0F2007EE0F2007880F2007890F20078A0F2007820F200795
:200CE000900F20078C0F20078B0F20078D0F2007A10F20079E0F2007DA0F2007BF0F200738
:200D0000C00F2007D90F2007C40F2007B30F2007C30F2007B40F2007C10F2007C20F200719
:200D2000200720072007200720072007200720072007200720072007200720072007200743
:200D4000200720072007200720072007200720072007200720072007200720072007200723
:200D6000200720072007200720072007200720072007200720072007200720072007200703
:200D80002007200720072007200720072007200720072007200720072007200720072007E3
:200DA0002007200720072007200720072007200720072007200720072007200720072007C3
:200DC000AE0F2007AF0F2007F20F2007F30F2007A90F2007AA0F2007FD0F2007F60F2007DB
:200DE000AB0F2007AC0F2007800F2007870F2007A50F2007A40F2007980F20079F0F200765
:200E0000F70F2007F90F2007AD0F2007A80F2007930F2007940F2007950F2007A20F20077F
:200E2000A70F2007960F2007810F2007970F2007A30F20079A0F2007C90F2007BB0F2007EC
:200E4000C80F2007BC0F2007CD0F2007BA0F2007CC0F2007B90F2007CA0F2007CB0F2007BD
:200E6000200720072007200720072007200720072007200720072007200720072007200702
:200E80002007200720072007200720072007200720072007200720072007200720072007E2
:200EA0002007200720072007200720072007200720072007200720072007200720072007C2
:200EC0002007200720072007200720072007200720072007200720072007200720072007A2
:200EE000200720072007200720072007200720072007200720072007200720072007200782
:200F000042074F07540754074F074D0720074C0749074E074507200742074F0754075407EB
:200F20004F074D0720074C0749074E074507200742074F07540754074F074D0720074C07FC
:200F400049074E074507200742074F07540754074F074D0720074C0749074E0745072007E8
:200F60002D072D072D072D072D072D072D072D072D072D072D072D072D072D072D072D0731
:200F80002D072D072D072D072D072D072D072D072D072D072D072D072D072D073E0720070D
:00000001FF
